{
  "contractName": "Hello",
  "abi": [
    {
      "constant": true,
      "inputs": [],
      "name": "say",
      "outputs": [
        {
          "name": "",
          "type": "string"
        }
      ],
      "payable": false,
      "stateMutability": "pure",
      "type": "function"
    },
    {
      "constant": true,
      "inputs": [
        {
          "name": "a",
          "type": "uint256"
        },
        {
          "name": "b",
          "type": "uint256"
        }
      ],
      "name": "sum",
      "outputs": [
        {
          "name": "",
          "type": "uint256"
        }
      ],
      "payable": false,
      "stateMutability": "pure",
      "type": "function"
    }
  ],
  "bytecode": "0x608060405234801561001057600080fd5b506101a2806100206000396000f30060806040526004361061004c576000357c0100000000000000000000000000000000000000000000000000000000900463ffffffff168063954ab4b214610051578063cad0899b146100e1575b600080fd5b34801561005d57600080fd5b5061006661012c565b6040518080602001828103825283818151815260200191508051906020019080838360005b838110156100a657808201518184015260208101905061008b565b50505050905090810190601f1680156100d35780820380516001836020036101000a031916815260200191505b509250505060405180910390f35b3480156100ed57600080fd5b506101166004803603810190808035906020019092919080359060200190929190505050610169565b6040518082815260200191505060405180910390f35b60606040805190810160405280600b81526020017f48656c6c6f20776f726c64000000000000000000000000000000000000000000815250905090565b60008183019050929150505600a165627a7a7230582038d42889ecd6873b0b3a4dd6c55807a5ec20e7be8d6b55fadb37a69fea059f430029",
  "source": "\npragma solidity ^0.4.23;\n\ncontract Hello {\n\n  function say() pure public returns (string) {\n    return \"Hello world\";\n  }\n\n\n  function sum(uint a, uint b) pure public returns (uint) {\n    return a + b ;\n  }\n\n}\n\n",
  "sourcePath": "/data/workspace/truffle01/contracts/Hello.sol",
  "compiler": {
    "name": "solc",
    "version": "0.4.24+commit.e67f0147.Emscripten.clang"
  },
  "schemaVersion": "2.0.1",
  "updatedAt": "2018-06-27T15:24:14.737Z"
}